:020000041000EA
:1000000000B5324B212058609868022188439860DF
:10001000D860186158612E4B002199600221596106
:100020000121F02299502B49196001219960352056
:1000300000F044F80222904214D00621196600F024
:1000400034F8196E01211966002018661A6600F04E
:100050002CF8196E196E196E052000F02FF8012189
:100060000842F9D1002199601B49196000215960AB
:100070001A491B48016001219960EB211966A021F2
:10008000196600F012F800219960164914480160C1
:100090000121996001BC002800D000471248134993
:1000A000086003C880F30888084703B5996A0420EC
:1000B0000142FBD001200142F8D103BD02B5186610
:1000C0001866FFF7F2FF186E186E02BD00000240BE
:1000D000000000180000070000035F00212200005C
:1000E000F4000018222000A00001001008ED00E03C
:1000F00000000000000000000000000074B24E7A12
:1001000000200420F7010010C3010010C5010010F9
:10011000C1010010C1010010C1010010C101001097
:10012000C1010010C1010010C1010010C701001081
:10013000C1010010C1010010C9010010CB01001065
:10014000CD010010CD010010CD010010CD01001037
:10015000CD010010CD010010CD010010CD01001027
:10016000CD010010CD010010CD010010CD01001017
:10017000CD010010CD010010CD010010CD01001007
:10018000CD010010CD010010CD010010CD010010F7
:10019000CD010010CD010010CD010010CD010010E7
:1001A000CD010010CD010010CD010010CD010010D7
:1001B000CD010010CD010010CD010010CD010010C7
:1001C00000BE00BE00BE00BE00BE00BEEFF3058054
:1001D000103800BEF2EB887174D8001098D8001067
:1001E0003802001090A31AE71E481F49086006C88D
:1001F00081F3088810471D480068002801D019487D
:10020000F3E70DA40ECC002902D000F012F8F9E7B4
:100210001749184A002000E001C19142FCD116495B
:100220008847164988471649884700BEFDE701C937
:1002300001C29A42FBD3704798D80010C00000203A
:100240009010002068E80010000004200000042046
:1002500068E80010001004200010042000000000D6
:10026000704700000000000008ED00E0000000D032
:10027000901000204C2100203D7100106D030010F3
:1002800035710010F8B5C04606480749091A8B10A9
:10029000C90FC91810B5491003D0044B002B00D06A
:1002A000984710BD90100020901000200000000022
:1002B000054B10B5002B03D00449054800E000BFF2
:1002C000FFF7E2FF10BDC04600000000E82000205C
:1002D000889E001010B5040007F06EF81F4807F064
:1002E000B9F80321052003F041FD0321042003F0A8
:1002F0003DFD00220121052003F052FD00220121D5
:10030000042003F04DFD03211F2003F02FFD0321E6
:100310001E2003F02BFD002201211F2003F040FDD1
:10032000002201211E2003F03BFD0D490D4802F083
:100330005DFC0B490C4802F059FCD02380221B06BF
:1003400052025A629A618022D2019A62802212027B
:1003500020009A6200F0FAF910BDC046889E001095
:10036000801A0600BC0F0020B40F002010B5094C05
:100370002000FFF7AFFF084803F0A0F8074807F098
:1003800069F8DC210648490007F0E8F8200000F091
:10039000C7FAFBE71814002088130000A49E001081
:1003A000CC9E0010002280211C4B5A5004315A5020
:1003B00004315A5004315A5004315A5004315A50C1
:1003C00004315A5004315A5004315A5004315A50B1
:1003D0000C315A5004315A5004315A5004315A5099
:1003E00004315A5004315A5004315A5004315A5091
:1003F00004315A5004315A50C8315A5004315A50BD
:1004000004315A5004315A5004315A5004319A661A
:10041000DA661A679A67DA675A507047181400202C
:1004200003002233DBB210B5242B03D8634A9B00B0
:10043000D3589F46624B0100180007F08FF810BD9B
:100440000221604807F08AF8F9E701215E4807F0C9
:1004500085F8F4E701215D48494207F07FF8EEE7AF
:1004600002215B48494207F079F8E8E7032159483F
:10047000494207F073F8E2E704215748494207F080
:100480006DF8DCE705215548494207F067F8D6E7E3
:1004900006215348494207F061F8D0E70721514847
:1004A000494207F05BF8CAE708214F48494207F084
:1004B00055F8C4E709214D48494207F04FF8BEE717
:1004C0000A214B48494207F049F8B8E70C2149484E
:1004D000494207F043F8B2E70D214748494207F087
:1004E0003DF8ACE70E214548494207F037F8A6E74A
:1004F0000F214348494207F031F8A0E71021414855
:10050000494207F02BF89AE711213F48494207F08A
:1005100025F894E712213D48494207F01FF88EE77D
:1005200013213B48494207F019F888E7142139485C
:10053000494207F013F882E715213748494207F08E
:100540000DF87CE716213548494207F007F876E7B1
:1005500017213348494207F001F870E71821314864
:10056000494206F0FBFF6AE719212F48494206F08D
:10057000F5FF64E71A212D48494206F0EFFF5EE7D8
:100580001B212B48494206F0E9FF58E71E21294864
:10059000494206F0E3FF52E720212748494206F08E
:1005A000DDFF4CE721212548494206F0D7FF46E709
:1005B00022212348494206F0D1FF40E7D0B2001083
:1005C000F8AD0010149F0010F89E0010389F001026
:1005D000CC9F00105CA0001024A20010ECA2001020
:1005E000ACA3001068A40010BCA0001040A500102F
:1005F000BCA50010A4A1001038A60010ACA60010E5
:1006000028A7001034A100109CA7001024A80010F7
:1006100094A8001000A9001054A90010ACA9001063
:10062000F0A9001070AA0010ECAA001050AB001046
:10063000BCAB001010AC00108CAC0010FCAC001077
:100640008CAD0010F0B5C6460F23160000B584B07F
:100650006B44187015049846184B2D0C02000C00C2
:1006600018002900B6B206F079FF0027002E04D149
:10067000380004B080BCB846F0BD0123104E42469D
:1006800068210093300002F0D9FA00972B00220075
:100690006821300002F0DCFA07000A4806F0DAFEB2
:1006A000002D08D0084E651921783000013406F07D
:1006B00055FFA542F8D17FB2DAE7C0461CAE001064
:1006C000BC0F00204CAE00105CAE001010B5002135
:1006D00002F07EFE10BDC046F0B5D6464F464646F7
:1006E000C0B50600140482B0240C150002AF32001D
:1006F00088461448210006F031FF6A46631C99467B
:100700000733DB08DB00D31A9D46ADB202AB9A4635
:10071000002D10D01E70002C05D00920220041466B
:10072000684405F085F800235246009368214B4643
:10073000054802F083FABD460020E0BCBA46B14647
:10074000A846F0BD60AE0010BC0F0020F0B591B01F
:100750006B4601268022DE71D02352021B06040064
:100760009A610A2002F0AAFE002C7AD05E4806F0B8
:1007700071FE68225D4B0020A3635D4B6672E363EC
:100780005C4B1A8063605C4B23642E23E38100235F
:100790006361FFF745FE200001F084F80A2002F0B3
:1007A0008DFE200002F0AAF80500FFF739FE002DAB
:1007B0000AD0524E524D534CFC22330029002000E7
:1007C000520006F0CBFEF7E7962002F077FE2100FC
:1007D000002000F0D1FE0500FFF722FE002D0AD018
:1007E000464E474D474CFF2233002900200052005F
:1007F00006F0B4FEF7E7FA200021400002AD02F057
:10080000E7FD2200012128002E7001F069FEFFF7AC
:1008100007FE22000221042001F02CFA0700FFF756
:10082000FFFD002F04D0384C200006F013FEFBE73C
:1008300082239B00AE71220001212800AB802F8112
:1008400001F054FC0600FFF7EBFD002E18D02B4EF4
:100850002B4D2C4C3300290020002C4A06F07EFE44
:10086000F8E701204042FFF7DBFD244E244D254CE4
:10087000F022330029002000FF3206F06FFEF7E778
:100880000023012229002B700020230000F082FDAC
:1008900029781F4806F062FE2B78242B09D0184DCA
:1008A000184C1C4E3300290020001B4A06F056FE4F
:1008B000F8E76B4622000121D81D01F081F8040001
:1008C000FFF7AEFD002C09D00C4E0D4D0D4C330042
:1008D00029002000114A06F041FEF8E7032002F04B
:1008E000EDFD11B0F0BDC0468CAE00104506001005
:1008F000D9060010D0150020CD060010B8AE0010AB
:10090000DCAE001018AF001030AF00100302000082
:1009100058AF001078AF00100A0200000F0200006C
:10092000F0B5DE4657464E464546E0B5C9B02822EA
:10093000002116A804F076FF262101230CAA5218E4
:100940001370914B27260893904B914F0993914B2D
:100950002EAC9B46904B9846904B45460A930CAB69
:100960009C468F4B66449A468E4BD0460D938E4BD9
:10097000DA460C938D4B0B9301239946089806F0A9
:1009800069FD099806F066FD4B4663725346A36302
:1009900068233B800A9B002023642E23E3810023ED
:1009A000E56363616760FFF73BFD200001F0A6FF90
:1009B0008346FFF735FD002301223100337000200C
:1009C000230000F0E7FC4046317806F0C7FD33789D
:1009D000242B22D15B46002B03D00B9806F03AFD66
:1009E000CCE750220CAB9B184A4601211A7020A874
:1009F000220001F075FDFFF713FD22000221042003
:100A000001F038F98346FFF70BFD5B46002B0ED053
:100A1000674C200006F01EFDFBE7664E664D674CF6
:100A2000330029002000664A06F098FDF8E75421BB
:100A300082230CAA52189B00138058220CAB9B18DF
:100A40005A461A8056220CAB9B184A4653391A70E4
:100A500020A8220001F04AFB8346FFF7E1FC5B4639
:100A6000002BBAD10CA88446262363441800220028
:100A7000012100F0A5FFFFF7D3FC0D9806F0EAFC7A
:100A80005B46AB461193210016A801F091F80500D2
:100A9000FFF7C6FC002DF6D1282124230CAA5218FA
:100AA000D35C5B06EFD50CAB34229B5E0E93207BB0
:100AB00004F034FC051C011C8020C00504F0A4FDDA
:100AC000139080200CAA3621525EC005291C0F927B
:100AD00004F09AFD129080200CA93823C95EC0054D
:100AE0001091291C04F090FDFC21890504F0DFFB26
:100AF000011C344804F0C7FB051C109804F014FCDA
:100B0000011C281C04F0D3FB04F068FC069007913C
:100B1000FC211298890504F0CAFB011C294804F045
:100B2000B2FB051C0F9804F0FFFB011C281C04F00D
:100B3000BEFB04F053FC04900591FC211398890539
:100B400004F0B5FB011C1F4804F09DFB051C0E982A
:100B500004F0EAFB011C281C04F0A9FB04F03EFC95
:100B6000119D0290039110990F9B00910E9A2900FC
:100B70000C9806F0F3FC2B000133DBB21193652BCC
:100B800081D15D4629E7C0469CAF00108CAE0010B5
:100B9000D015002045060010D9060010CD06001023
:100BA00058AF0010B4AF001004B000102CB000100B
:100BB00030AF001078AF0010DCAE001018AF00109E
:100BC000420200000000FA44F8B506000F00141EAF
:100BD0004AD0936B002B47D0D56B002D44D0136CBB
:100BE000002B41D000293FD0537A002B2FD0472231
:100BF000A25C6368012A10D0012239003000A847A6
:100C00006168A072236C022098470A2161567C2EED
:100C100012D0002925D10020F8BD39003000A847A6
:100C2000A072E1206168236C400098470A21615658
:100C3000002914D17C2EEED1012318003A781040FF
:100C4000134207D04722A3540029E4D009E07F33A0
:100C50001E40CCE74723E0540029DCD001E07C2E85
:100C6000EAD002204042D7E701204042D4E7C04604
:100C7000F0B54F464646D6468046C0B514000F0034
:100C8000002A00D179E0936B002B00D175E0D66B80
:100C9000002E00D171E0136C002B00D16DE0002913
:100CA0006BD0537A002B1AD04725635D012B1ED0E1
:100CB0000222390063684046B047236CA072616825
:100CC000022098470A234246E3567C2A45D0002B4F
:100CD00040D10020E0BCBA46B146A846F0BD0200B3
:100CE00047257F331A40635D9046012BE0D1BB1C42
:100CF0009A464346DB1B3D00994600E0E66B4A46B8
:100D00005019290001226368C0B2B047A072E120E7
:100D1000236C6168400098470A23E356002B0ED1EC
:100D200001355545EAD143467C2BD2D17B3B190096
:100D30003A78114013421DD04722A354C9E74346D5
:100D40007C2B07D17B3B19003A78114013420CD021
:100D50004722A35402204042BCE77B3A1000397876
:100D600008400A4204D06255B1E74723E154F1E755
:100D70006055ACE74723E154ABE701204042A9E7C7
:100D8000F0B50D001400A1B0002A37D0966B002EEC
:100D900034D0D36B002B31D0136C002B2ED0002914
:100DA0002CD0537A002B22D0E27A63680132694654
:100DB000B04706001A4F0100380006F0CFFBE37A77
:100DC000616801339B1B5A1E9341A3724723E35C66
:100DD000226C012B0ED0022090470A2020560028BA
:100DE0000FD16A46E37AD35C2B7021B0F0BD80331B
:100DF0001843D9E7E12040009047EEE70120404248
:100E0000F3E7084806F026FB3100380006F0A6FBA1
:100E1000E17A0548013106F0A1FB02204042E4E7F7
:100E20003CB0001054B0001064B0001070B582786F
:100E300082B00C0001A9012A06D901230222837085
:100E4000237A1343237282784378012A35D0072B03
:100E50002BD81B015DB20378002B06D1012601338C
:100E60000370237A3343237203780C2B06D90C23A7
:100E700002260370237A334323720C23C678032E91
:100E800006D90326C6700226207A30430326207234
:100E9000D2012A431343402022000B704E70FFF70B
:100EA000E7FE002813D002B070BD0723022543706F
:100EB000237A2B4323727025CDE7032BC9D9032353
:100EC00002254370237A2B4323723025C3E76B46F8
:100ED0002200D91C1B30FFF753FF0028E3D16B46DB
:100EE000DB78DB065B0F5A1E022ADCD80438C01AF6
:100EF000D9E7C046F0B5C64600B50D001400A0B055
:100F0000002A3ED0976B002F3BD0D36B002B38D0FC
:100F1000136C002B35D0002933D0537A002B29D005
:100F2000E27A694602326368B84707001E4B010047
:100F30001800984606F012FBE37A6E460233DB1B7C
:100F40005A1E9341A3724723E35C226C6168012B14
:100F500013D0022090470A202056002814D1E37AAB
:100F6000F35C2B70E37AF61873786B7020B080BC5A
:100F7000B846F0BD80331843D2E7E12040009047E7
:100F8000E9E701204042F1E7084806F063FA39003A
:100F9000404606F0E3FAE17A0548023106F0DEFA4F
:100FA00002204042E2E7C0463CB0001054B00010BE
:100FB00064B00010F0B505000C0083B0002948D0E3
:100FC0008B6B002B45D0CB6B002B42D00B6C002BD6
:100FD0003FD001AE0A006B203100FFF7D1FE0028A0
:100FE0002CD10127337822005B113B403080310047
:100FF0002B704B30FFF77EFF00281FD133787278BB
:101000005B08EB7193111F40032391101940D00925
:1010100013406870AF70E9702B71002810D06B46D8
:1010200022004420D91CFFF7ABFE002806D16B46F6
:10103000DA781309AB710F2313406B7103B0F0BD65
:10104000290022004D200831FFF79AFE0028F5D133
:10105000E5E701204042F1E7F0B5C64600B582B0B1
:1010600008AC277809AC26780AAC2578046898463D
:1010700000946C4683884900A380615E002F01D0F4
:10108000494209B25200A25E0180002E01D05242B4
:1010900012B243465B004280E35E002D01D05B420A
:1010A0001BB2838002B080BCB846F0BDF0B5877833
:1010B0000C0083B0012F57D8FF017FB24378032B78
:1010C00049D81B015BB29C464279012A3BD8920168
:1010D00052B20378052B06D8062301210370237A28
:1010E0000B43237203780D2B06D90D2302210370C5
:1010F000237A0B4323720D23C17801291BD8C90021
:10110000CEB20579042D06D90421017102200425EF
:10111000217A01432172604607433A4301A91343F0
:101120003543220042200B704D70FFF7A1FD0028CF
:1011300023D003B0F0BD01210225C170217A082619
:1011400029432172DDE7012302224371237A1343ED
:1011500023724022BDE7032302224370237A134304
:10116000237230239C46AFE701230222802783703D
:101170000B7A7F4213430B72A0E76B462200D91C07
:101180001B30FFF7FDFD0028D3D16B46DB78DB0673
:101190005B0F5A1E022ACCD80438C01AC9E7C046D1
:1011A000F0B5C64600B505000C00A0B000294AD035
:1011B0008F6B002F47D0CB6B002B44D00B6C002BD8
:1011C00041D0487ACA7A43425841C00102324B6842
:1011D00042306946B8470700244B01001800984682
:1011E00006F0BCF9E37A6E460233DB1B5A1E9341CC
:1011F000A3724723E35C226C6168012B1FD002209D
:1012000090470A202056002820D1E37AF25CF61895
:10121000D309AB7001239111194069719106890FAF
:1012200069700F2174780A402A70E2101340EB7045
:10123000072323402B7120B080BCB846F0BDE120CD
:1012400040009047DDE701204042F4E7084806F0FF
:1012500001F93900404606F081F9E17A054802318A
:1012600006F07CF902204042E5E7C0463CB00010A1
:1012700054B0001064B00010F0B54F464646D64654
:101280000723C0B5A2B06B44984614000023424621
:1012900005000F001370002C63D0A66B002E60D0E9
:1012A000E36B002B5DD0236C002B5AD0607AE27A7E
:1012B00043425841C001013202A963687D3089462A
:1012C000B0470600304B010018009A4606F046F978
:1012D000E37A616801339B1B5A1E9341A372472333
:1012E000E35C226C012B38D0022090470A20205664
:1012F000002839D14A46E37AD35C42461370EA07A4
:1013000003D50422134342461370042201212A40CC
:101310000F40A90706D4002A0AD1002F0ED16D076D
:1013200015D00FE002210B4341460B70002A03D079
:101330000122134342461370002F03D008221343A7
:1013400042461370220041467D20FFF73DFC22B04B
:10135000E0BCBA46B146A846F0BDE1204000904747
:10136000C4E701204042F2E7084806F073F8310074
:10137000504606F0F3F8E17A0548013106F0EEF840
:1013800002204042E3E7C0463CB0001054B00010D9
:1013900064B00010F0B54746CE4680B516000F0089
:1013A0001D00A1B0002B44D09C6B002C41D0DB6B06
:1013B000002B3ED02B6C002B3BD0002939D06B7A10
:1013C000002B2FD0EA7A694692196B68A047040077
:1013D000214B01001800994606F0C0F8EB7AE84668
:1013E0009B191B1B5A1E9341AB724723EB5C2A6C63
:1013F0006968012B19D0022090470A20285600283E
:101400001AD10024002E08D04246EB7A1219D35C80
:101410003B550134A3B29E42F6D821B0C0BCB946B8
:10142000B046F0BD80331843CCE7E1204000904740
:10143000E3E701204042F0E7084806F00BF82100FE
:10144000484606F08BF8E97A0548891906F086F8CF
:1014500002204042E1E7C0463CB0001054B000100A
:1014600064B00010F0B54F46D64646468A46C0B531
:10147000914607001C1E00D17BE09B6B002B00D126
:1014800077E0E36B9846002B00D172E0236C002BD1
:1014900000D16EE000296CD0637A002B19D047236D
:1014A000E35C012B1BD0514663684A463800C047B5
:1014B0006168A072236C022098470A23E3567C2FB0
:1014C00044D0002B33D10020E0BCBA46B146A84638
:1014D000F0BD7F331F404723E35C012BE3D14B4634
:1014E000002BEAD05646002506E00135ADB20136A4
:1014F000A9451FD0E36B9846781901223100636833
:10150000C0B2C047A072E120236C616840009847D8
:101510000A23E356002BE8D07C2F08D10123524642
:1015200019001278114013421AD04722A354022006
:101530004042C9E77C2FC6D10123524619001278D8
:101540001140134212D04722A354BCE70122514656
:101550001000097808400A4205D047216254B0E7DC
:101560004723E154E3E74722A054AAE74723E15485
:10157000A9E701204042A7E7F0B54746CE4680B52F
:10158000A3B06B46DF1D002305000C1E3B7048D046
:101590008E6B002E45D0CB6B002B42D00B6C002BFA
:1015A0003FD0487ACA7A43425841C00101324B6861
:1015B0007C3002A98846B0470600244B0100180081
:1015C000994605F0CBFFE37A616801339B1B5A1EF5
:1015D0009341A3724723E35C226C012B1DD00220B0
:1015E00090470A23E356002B21D142460126E37A95
:1015F0003540D35C3900B3431D4322007C203D704D
:10160000FFF7E2FA00280FD13B781E404723E6544B
:1016100023B0C0BCB946B046F0BDE12040009047C1
:10162000DFE701204042F3E70D204042F0E70848A1
:1016300005F010FF3100484605F090FFE17A0548BB
:10164000013105F08BFF02204042E1E73CB0001081
:1016500054B0001064B00010F0B5DE4657464E4658
:101660004546E0B583B000236A46041ED37000D11E
:10167000CBE0836B002B00D1C7E0C36B002B00D104
:10168000C3E0036C002B00D1BFE04A23C35A984645
:10169000002B00D1B9E0C689F30711D4012E02D87E
:1016A00002230226E38121000020FFF765FF0028C6
:1016B0000AD003B0F0BCBB46B246A946A046F0BD76
:1016C000013EB6B2C681E9E701AD287022002900CB
:1016D0005920FFF755FB0028EBD101222B78290078
:1016E00093432B7022005930FFF76EFA0028E0D1A7
:1016F0003100404602F070FDE3898AB2C9B29A46D1
:10170000002923D10F23002699466769BF19002FAE
:101710007BD04A46730813402B70730922002900BE
:101720005B206B70FFF7A4FA0028C2D12300524659
:1017300039005E30FFF796FEE3899A465644B6B20A
:10174000B04500D8A9E00028DFD0B2E7FF2313405E
:101750004246D31A9BB299460F239B464B4600261E
:10176000002B58D06769BF19002F4ED05A46730816
:1017700013402B707309220029005B206B70FFF768
:1017800077FA002895D15246230039005E30FFF7E2
:1017900069FEE289030092465644B6B24E4502D233
:1017A0000028DFD085E7002800D082E70233E381FC
:1017B000C84533D902230F279B4666694E44002E45
:1017C00026D04B465B083B402B704B465B09220002
:1017D00029005B206B70FFF74BFA002802D05346BC
:1017E000E38166E723005A4631005E20FFF73AFEA8
:1017F000E3899B464B465B449BB2994698454AD940
:101800000028DAD0EBE7002323740120404250E7A0
:101810005346E381F9E70233E381CBE7E28100231A
:101820002200290059202B70FFF7AAFA002800D0C7
:101830003FE701222B78290013432B7022005930F7
:10184000FFF7C2F9002800D033E721000130FFF78D
:1018500093FE002800D02CE7A36B002BD3D0E36BC2
:10186000002BD0D0236C002BCDD061680C4898475A
:101870006B462200D91C2120FFF782FA6B46DA78EA
:101880000F2313402374002800D012E7012B00D14E
:101890000FE709380DE75346E3810028BFD008E77A
:1018A000204E000030B583B0B6236A469371002302
:1018B000041ED37131D0836B002B2ED0C36B002B51
:1018C0002BD0036C002B28D06B460200991D7E2084
:1018D000FFF77AF90500FA20236C6168C000984789
:1018E00047230122E254002D0BD1637A002B0BD049
:1018F0002000FFF7B1FE051E03D100220023226362
:101900006363280003B030BD6B4622000020D91D60
:10191000FFF736FA051EF4D1EAE701256D42F0E73C
:1019200030B583B000236A46041ED37137D0836B71
:10193000002B34D0C36B002B31D0036C002B2ED086
:1019400047230122C254437A002B1BD06B4622004E
:10195000D91D0020FFF714FA6B460500D97900283D
:1019600019D123788B421DD1102323730F3BE376CB
:10197000104BA085A3622000FFF794FF050028000C
:1019800003B030BD6B460200D91D0020FFF7F8F907
:10199000051EF4D1DAE7084805F0E0FDEFE7012580
:1019A0006D42ECE703250548217005F0D7FD6D4237
:1019B000E5E7C04600010200D4B0001080B000107E
:1019C000F8B5CE46474605000E0080B5002A3FD048
:1019D000936B002B3CD0D36B002B39D0136C002BB6
:1019E00036D0002834D000292FD00024A446043457
:1019F000A146023C0023002000210127A04607E069
:101A0000002C1CD0444620430133DCB2A6420AD944
:101A1000EC5C022C10D0F3D9202C12D10133DCB2B3
:101A20003943A642F4D86346002B14D1FFF724FCB7
:101A3000C0BCB946B046F8BD4C462043E4E7384345
:101A4000E2E708246442A446DEE700200021EDE737
:101A500001204042ECE708204042E9E7F0B50400ED
:101A60000E00150085B0002A00D19AE0936B002B80
:101A700000D196E0D36B002B00D192E0136C002BC9
:101A800000D18EE0002900D18BE00B0018331A0042
:101A9000411C0A43920700D072E0821C9B1A022B61
:101AA00000D86DE00B68B361431D1B68F361A37A36
:101AB000627A1B0213433380237BE27A1B021343B7
:101AC0007380A37B627B2D201B021343B3802922EA
:101AD0002A232821285CEB5CAA5C695C02902C20FC
:101AE000285C01902B20285C00903000FFF7B4FAAE
:101AF000217CE37B0902194309B2B181A37C627C9A
:101B00001B021343F381227DE37C12021A43442318
:101B100012B23282EB5E5A43D317DB05DB0D9B1802
:101B20005B121BB2C91A80231B02994226DA1E4A95
:101B30001300914200DB0BB22D27B38129222A2307
:101B40002821EF5DEB5CAA5C695C02972C27EF5DB6
:101B5000300001972B27ED5D0C300095FFF77CFAE4
:101B6000E37D627D1B041343A27D00201202134318
:101B7000336224232278F25405B0F0BD0B4BDBE72F
:101B800063783376A3787376E378B3762379F37644
:101B900063793377A3797377E379B377237AF3772C
:101BA00085E701204042E7E70080FFFFFF7F00005C
:101BB000F0B5C64600B505000C00A6B0002841D01F
:101BC00000293FD08E6B002E3CD0CB6B002B39D040
:101BD0000B6C002B36D0487ACA7A4342584106AF84
:101BE000C00118324B6803303900B04706001E4B65
:101BF00001001800984605F0B1FCE37A61681833DB
:101C00009B1B5A1E9341A3724723E35C226C012B5A
:101C100014D0022090470A23E356002B15D1E17A15
:101C200018227918684603F003FE2200290068464E
:101C3000FFF714FF26B080BCB846F0BDE12040009D
:101C40009047E8E701204042F4E7084805F002FC2D
:101C50003100404605F082FCE17A0548183105F074
:101C60007DFC02204042E5E73CB0001054B000107B
:101C700064B00010F0B54746CE4680B5A3B014005E
:101C800000236A4607000D00D371002C54D0A66BC8
:101C9000002E51D0E36B002B4ED0236C002B4BD089
:101CA000607AE27A43425841C001013202A9636876
:101CB00058308846B0470600284B01001800994666
:101CC00005F04CFCE37A616801339B1B5A1E93417B
:101CD000A3724723E35C226C012B22D002209047A1
:101CE0000A23E356002B2AD142460C20E37A4042D5
:101CF000D35C032D10D83A01D2B2022D18D0032D97
:101D000018D0012D11D13B436A46D3716B46220096
:101D10005820D91DFEF758FF23B0C0BCB946B046C5
:101D2000F0BDE12040009047DAE73A439343EBE708
:101D30001343E9E71343E6E701204042ECE7084894
:101D400005F088FB3100484605F008FCE17A0548BB
:101D5000013105F003FC02204042DDE73CB00010F9
:101D600054B0001064B00010F0B54E46DE46574641
:101D700045468946E0B5A5B002ABD91D4B461400D7
:101D80000870002B00D104E1002A00D101E1127E8D
:101D90000B789A4200D8FFE022002F20FEF714FFB4
:101DA000031E73D1E2890F2A00D97FE0D10700D545
:101DB00078E030218846002100268A468749102590
:101DC0000191310004AF46460293884618E0494627
:101DD000230030005144FFF7DDFA52461025A37B63
:101DE0009A189E194344DBB2D2B2ED1A9246984635
:101DF000F6B2EDB2002800D0C5E0002D45D0E28952
:101E00009542E4D2A36B9B46002B00D1C1E0E36B6B
:101E1000002B00D1BDE0236C002B00D1B9E0637A28
:101E20003000002B01D180203043E27A63685219E0
:101E30003900D84783460100019805F08FFB5A46C8
:101E4000E37A61685B199B1A5A1E9341A372472378
:101E5000E35C226C012B21D0022090470A23E35639
:101E6000002B00D09BE049465144E27AF818825C8E
:101E7000CA5401339AB29542F7D84544EBB21025C3
:101E8000ED1AEDB29846002DB9D1029B180025B08D
:101E9000F0BCBB46B246A946A046F0BDE1204000DA
:101EA0009047DBE7013A92B2E28182E7A66B002E0F
:101EB0006FD0E36B002B6CD0236C002B69D0607A61
:101EC000E27A4342584104ADC001103263682900F0
:101ED0003030B0470600414F0100380005F03EFBAE
:101EE000E37A616810339B1B5A1E93414722A37209
:101EF000A25C236C012A48D0022098470A23E356AB
:101F0000002B5BD14946E27AAA5C0A70E27AAA18F1
:101F100052784A70E27AAA1892788A70E27AAA18FD
:101F2000D278CA70E27AAA1812790A71E27AAA18EB
:101F300052794A71E27AAA1892798A71E27AAA18D9
:101F4000D279CA71E27AAA18127A0A72E27AAA18C7
:101F5000527A4A72E27AAA18927A8A72E27AAA18B5
:101F6000D27ACA72E27AAA18127B0A73E27AAA18A3
:101F7000527B4A73E27AAA18927B8A73E27AAD188E
:101F8000EA7BCA7382E7030080E7E12040009847BC
:101F9000B4E701235B4279E70A235B4276E7104806
:101FA00005F058FA5946019805F0D8FAE17A0D483B
:101FB000491905F0D3FA02235B4267E7084805F0A8
:101FC00049FA3100380005F0C9FAE17A05481031C4
:101FD00005F0C4FA02235B4258E7C0463CB000104B
:101FE00054B0001064B00010F0B587B00E000700C8
:101FF0001022002102A803F015FC4823F35A9B0687
:1020000026D4B57E002D20D00023726A04E001336F
:10201000DBB20332AB4218D01478292CF7D1947874
:10202000507802A93200FFF79FFE00280BD108224A
:102030006B469B181A5D7F231340520600D5803BE8
:1020400000201BB23B8007B0F0BD08204042FAE7F9
:102050006B4632001E20D91DFEF792FE0028F2D1F9
:102060006B46DB795A06EBD5803BE9E7482330B570
:10207000C35A040085B09B0734D5836B002B2ED048
:10208000C36B002B2BD0036C002B28D04723C35CE1
:10209000012B0ED06D462923010001A82B70FFF7FC
:1020A000A3FF002803D144230020AA88E25205B0F0
:1020B00030BD01000020FFF75FFA0028F7D16D4620
:1020C0002923210001A82B70FFF78EFF0028EED1F5
:1020D00021000120FFF750FA0028E4D0E7E70120B3
:1020E0004042E4E708204042E1E7C046F0B5DE4662
:1020F00057464E464546E0B5140087B0002A00D149
:102100009AE1936B002B00D196E1D36B002B00D1A9
:1021100092E1136C002B00D18EE1002800D18BE1FD
:102120004723D35C9846002900D16BE1CE00761A94
:10213000F600B346050083444346012B00D183E0FB
:102140002B78022B00D18AE0022B19D8002B00D16A
:1021500034E12100281DFEF7A9FF0600002E07D15B
:102160003835AB45E8D14346012B00D14EE100267E
:10217000300007B0F0BCBB46B246A946A046F0BD51
:10218000092B00D017E102AF10220021380003F024
:1021900049FB607E002800D10DE10023226A05E0A2
:1021A0000133DBB20332834200D104E11178092903
:1021B000F6D193785078390022009A46FFF7D4FD83
:1021C000061ED5D153465B0858003A5AA988D20A50
:1021D0004905490DD2020A433A52581C40003A5A66
:1021E000E988D20A4905490DD2020A4302335B004D
:1021F0003A52FA5A2989D20A4905D202490D0A43AC
:10220000FA52A36B002B00D116E1E66B002E00D131
:1022100012E1236C002B00D10EE14723E35C012B7C
:1022200000D1D1E01022390063683020B047236C20
:10223000A0726168022098470A23E356002B00D160
:102240008EE70226764293E721000020FFF794F9FB
:10225000061E00D08CE72B78022B00D074E76B7A37
:10226000002B06D1012201336B72237A13432372B0
:102270006B7A0B2B05D90B2302226B72237A134343
:10228000237202AF220039006B20FEF779FD061E93
:1022900000D06DE720212B793A785B018A430B400F
:1022A0001343390022006B203B70FEF78DFC061EA5
:1022B00000D05DE707236B449A46002352463880DE
:1022C0001370390022004B30FEF714FE061E00D0BA
:1022D0004EE701233A78A9791340EA7A890152003E
:1022E00013433B707F237A78153613406A79D20105
:1022F0001343402293430A4013430C22E97993434A
:1023000089000A4013430322297A93430A40134366
:102310007B700423994608E0236C013E61684948BC
:10232000F6B29847002E00D189E0A26B236C002AF8
:10233000F3D0E26B002AF0D0002BEED02200514601
:102340000320FEF71DFD53464A461B781340034306
:10235000DBB2002BE0D1390022004B20FEF788FCD5
:102360000600FA206168236C80009847002E00D098
:10237000FEE66B79002B4FD00123E376EB792377D0
:10238000220039004420FEF7FBFC061E00D0EFE6D9
:102390000F22697AAB7A0A401B01134339003B7064
:1023A00022004420FEF710FC0600FA206168236C2E
:1023B00080009847D2E608267642D9E62100281DFB
:1023C000FEF734FD0600C9E60023994607E0012325
:1023D0009C46E1444B46102B00D1C1E6E66B4846D3
:1023E0004A463030B91863680122C0B2B047A072C3
:1023F000E120236C6168400098470A23E356002BD4
:10240000E5D01EE70026012B00D0B1E62100012017
:10241000FFF7B2F80600ABE62900E6760C312200A1
:102420004D20FEF7D1FB0600FA206168236C800086
:102430009847002EA4D09BE60126764298E60F2608
:10244000764295E610270000F0B5C6460E0000B5AE
:1024500084B0804610220021684603F0E3F9757EBF
:102460006F46002D35D00023326A04E00133DBB221
:102470000332AB422DD01478092CF7D194785078E0
:1024800039003200FFF770FC002824D1631CDBB256
:10249000FA5C3B5D1202134342465B055B0D138001
:1024A000E31CDBB2FA5CA31CDBB2FB5C120213433D
:1024B00042465B055B0D5380631DDBB20434FA5C5E
:1024C000E4B23B5D1202134342465B055B0D938011
:1024D00001E00820404204B080BCB846F0BDC046D0
:1024E000F0B5C64600B504000E00150082B0002A03
:1024F00000D1B5E0936B002B00D1B1E0D36B002B82
:1025000000D1ADE0136C002B00D1A9E0002800D170
:10251000A6E04723D35C002900D1A4E0012B49D0D9
:1025200000270434231F1B78022B0FD12900200021
:10253000FEF740FD002805D10137FFB23834BE4216
:10254000F0D1002002B080BCB846F0BD012B2CD0E9
:1025500009D9092B04D129002000FFF775FFE9E70D
:1025600008204042EEE7AB6B002B79D0EB6B002BE1
:1025700076D02B6C002B73D06A46002340209380CA
:1025800001A92A00FEF7B6FC0028DBD16B461A79B8
:102590005979D309A37053065B0F63700F2313405F
:1025A000237003230B40E370C6E729002000FEF7E9
:1025B000F7FDBFE700272378032B1DD92900002052
:1025C000FEF7DAFF0028BDD12378012B3ED018D9C1
:1025D000022B40D0092BC3D12900201DFFF734FF67
:1025E0000028AFD10137FFB23834BE42E3D1290011
:1025F0000120FEF7C1FFA5E7022BDFD0012B25D07C
:10260000AED8AB6B002B2BD0EB6B002B28D02B6CF8
:10261000002B25D001AB984600234246414613804B
:1026200040202A00FEF766FC002800D08AE74346D7
:102630001A785978D309A37153065B0F63710F237E
:102640001340237103230B40E371CBE72900201DC6
:10265000FEF7A6FDC4E72900201DFEF7ABFCBFE78F
:10266000012040426EE70020012B00D06AE7BEE760
:1026700070B50500507E0C0000280FD00023116AB1
:1026800004E00133DBB20331834208D00A78A2426E
:10269000F7D10322280003F0CBF8012070BD002001
:1026A000FCE7C046F0B5DE4657464E464546E0B527
:1026B00087B002AE81460F0010220021300003F0E7
:1026C000B1F800239B46002301AC23805B464A46B9
:1026D000A3702B4B1E211A6020003A009A46082551
:1026E000FFF7C6FF6D428046012841D13A00310014
:1026F0006078FFF739FB051E3AD15346A0781A6877
:10270000431CDBB2F15C335C09020B434146DB1036
:1027100019401180B38800215380F38830009380E2
:10272000F389D380102203F07DF85B463A002580C0
:10273000A3701F212000FFF79BFF53464A46083D28
:102740001A60012814D13A0031006078FFF70CFBC1
:10275000051E0DD15346A0781968431CDBB2F25C0C
:10276000335C120213430B810323B28813404B8165
:10277000280007B0F0BCBB46B246A946A046F0BD53
:102780006C1B0020F0B5DE464E4645465746814656
:10279000E0B587B002AD8B4610220021280003F07F
:1027A00041F800234A4601AE3380B370524B1E21DC
:1027B0001A6030005A469846FFF75AFF012800D0A9
:1027C0008BE05A4629007078FFF7CEFA041E00D03D
:1027D0007BE00834A446424667461168B3780A880D
:1027E00058084000D20022402C5ABC4322432A52AF
:1027F0004A881020AA808A88C01AEA80CA88C0B293
:10280000EA810922D21AD2B2F72A69D80322EC1837
:102810009446224264D11122D21AD2B211006746E4
:10282000B94317421AD018336B445A18103A127829
:1028300062544A1CD2B2904210D39F18BC46102753
:102840007F42BA46D444674602313F78C9B2A754A2
:10285000884203D35B1853441B7863545B461022B1
:1028600029003020FEF7FEFD041E2ED1102200218B
:10287000280002F0D7FF00234A46B37043461F21C9
:102880001A6030005A463480FFF7F2FE012824D146
:102890005A4629007078FFF767FA041E15D14246A0
:1028A000B37811685B080A895B006B441A810322C4
:1028B0004989AB88302093430A401343AB801022F0
:1028C0005B462900FEF7CEFD0400200007B0F0BCF7
:1028D000BB46B246A946A046F0BD08246442F4E7D0
:1028E000002211006944C9180C7AA9180132D2B229
:1028F000CC548242F5D9B1E76C1B002070B5041EA0
:1029000037D0836B002B34D0C36B002B31D0036CDA
:10291000002B2ED024230370174B8364437A5A4232
:102920005341C3724369002B20D02000FEF7F8FF0B
:10293000051E05D02900114804F010FE280070BDC6
:102940000F4B0E2223620F4B200063620E4B23833A
:102950000823A3760D4B63650D4BA3650D4BE36513
:102960006023E254FFF782FB0500E7E70A4B43616F
:10297000DBE701256D42E1E70300002008B100100C
:102980007CB3001064B3001008170000A5260010E7
:1029900085270010980F0020C4B30010F0B5DE4664
:1029A00057464E464546E0B5070083B00CA8019255
:1029B000027800203C689B46E066616001219146F8
:1029C000E166002B34DD5A1E904680225200944668
:1029D00080264025616F1029FCD00021002801D1FC
:1029E0003979890240451DD0624611432161A159C0
:1029F000616B0D420BD00120636D40424B463B7131
:102A000003B0F0BCBB46B246A946A046F0BDA16FDC
:102A10000029ECD02169019B195401308345EDD088
:102A20003C68D7E74B4601225A4053021943DBE783
:102A30000020E3E7F0B5DE4657464E464546904651
:102A40000022E0B585B01E000EAB1B7807009B4648
:102A50000368DA6601325960DA66002E60DD0279B9
:102A600059469202924601224A40520294468022DE
:102A700091465A46802403926246BB4600201021AC
:102A80004746B446751EA4000192421B16007242CE
:102A90007241019E5242164002963E5CB046564636
:102AA000424616433200029E16431E61019E5A6B37
:102AB0001142FCD04A469A5801969246002A0AD101
:102AC000A84228D00022013092468445DDD1039BE4
:102AD0005F469B4616E05A6D012290465A6B224291
:102AE000FCD01A6E42460196002AEBD0039B5F464B
:102AF0009B465346002B15D05346DB0712D4534652
:102B00001B070FD55B463B7105B0F0BCBB46B24618
:102B1000A946A046F0BD039A002AD3D19046DDE72E
:102B20000020EFE701204042ECE7C046F8B5DE4662
:102B300057464E4645468346E0B505200C0001F059
:102B40000FF9060060082100801901F045FB4300E1
:102B50009846804407000521404601F03DFB3B1AA2
:102B60009A461E4B8146700080199C4231D81C4900
:102B700001F032FB451C5B461C680023E3662268BB
:102B800004335A400233134080225201A2181360CA
:102B90005346E3614B462362434601204F2B03D942
:102BA0005021404601F018FBA023E050E36F3900AC
:102BB0005D400C4B2D042D0CE3181D6001233000EB
:102BC000E36601F009FBF0BCBB46B246A946A0464D
:102BD000F8BD054901F000FB451CCCE73F420F0062
:102BE000809698007C10000040787D010F4A70B5F7
:102BF000821A531E9A410E4BD20008321A600D4BB6
:102C00000D4C1A60150023689D432B1EFAD16624D3
:102C10000268FF340571D5661460633C8833FF3C5D
:102C2000D5639563D450FFF781FF70BDBC0F0020C2
:102C300000E0004000F0004008C0004010B582B045
:102C40006C46247C0094FFF7F5FE02B010BDC04630
:102C500010B582B06C46247C0094FFF79FFE02B052
:102C600010BDC0468023DB051868000F7047C046C2
:102C70000FB400B5084883B004F0ECFB049B002BB4
:102C800007D005A91800019104F03AFA034804F0AE
:102C9000E1FB012004F04CFA58B1001068B10010BB
:102CA00070B5EFF3108C72B60D4D2B68002BFCD075
:102CB000BFF35F8F0724CB08C618C05C01230C400C
:102CC000A3401C000440034207D118433070BFF3F7
:102CD0005F8F2C608CF3108870BD1000FFF7C8FF69
:102CE0002C0100D0F8B54746CE46884680B5EFF3B4
:102CF000108C72B61C4D2C68002CFCD0BFF35F8F7B
:102D00009A4222D807210126894602E001329342E5
:102D100018D34D4637001540AF40D4080119045D63
:102D20002742F3D110003C430C70BFF35F8F0022A9
:102D30000D4B1A608CF3108800280EDBC0BCB9461E
:102D4000B046F8BD01204042EFE7BFF35F8F00239C
:102D50002B608CF31088012040424346002BEDD0BD
:102D60000898FFF785FFC0462C0100D0044A107870
:102D7000431CDBB2172B00D9102313707047C046D9
:102D8000C40F002010B5064B064C82B00100009322
:102D900018221F232000FFF7A5FF02B010BDC04678
:102DA0006CB10010781C00200021044B044ABFF3D2
:102DB0005F8F02C39342FAD17047C046000100D032
:102DC000800100D00A4B1968EFF3108072B60A68D0
:102DD000002AFCD0BFF35F8F1B68BFF35F8F002218
:102DE0001A6080F3108840BF002000217047C04661
:102DF00024210020F0B5DE4657464E464546E0B554
:102E000087B0EFF30583032201251A409540910016
:102E10008846A946B34B03925C58B34B1D60B34B35
:102E200004934B46B24843630823E55E002D37DA2E
:102E3000A3881BB2002B00DBADE0A379002B00D0F0
:102E4000EEE00823E05E002820DB430062691B18E7
:102E5000DB00D3189E68DD68731C00D111E1A44823
:102E600001004144826A0B69B71A9B1A9F4215D32D
:102E70000123026A039883401A420FD09C4800F055
:102E80002BFC8D4202DCCCD18642CAD940BF07B0B0
:102E9000F0BCBB46B246A946A046F0BD0E61EDE7C8
:102EA00062696B0092465B19DB009A4453469E6848
:102EB000DF6800F011FC8F42BADC00D103E1002F83
:102EC00000DAE8E05246534652691B699346049A79
:102ED000934200D1D9E052460821605E5288000436
:102EE000594610439847009001910099019A0B00B0
:102EF0001000134300D1CEE013000A00B61A9F4120
:102F0000002806DB7A4800F0E7FB009E019F361898
:102F10004F4153469E60DF6000229A5E002A00DA2D
:102F200086E7530099186069C900411802938B68BD
:102F3000C9689B46B94200DD7AE702D1B34200D9A5
:102F400076E708239C46A444059565462281A4465D
:102F5000029B2C0006E053009918C90041188D68A7
:102F6000C968AB469B18DB00C318B94206DC00D128
:102F7000B3E01C000023E25E002AECDA2300644682
:102F80009C4653461A806346059D1D80A3881BB24C
:102F9000002B00DA51E72269EFF3108172B6136853
:102FA000002BFCD0BFF35F8F0123A7885B42A38077
:102FB0003FB22369BFF35F8F00221A6081F310884C
:102FC000002F00DA39E72300083322009A466669A9
:102FD0007B00DB19DB00F318996850468C46082407
:102FE000115FDD68002910DB029306E0AB4244D09C
:102FF0000023E15E2000002906DB4C006418E40099
:103000003419E368AB42F1DD029B078000201F5EAC
:103010001980002FDCDA1400A379002B00D110E70F
:103020000023A37126000823E15E08364B1C00D163
:103030002CE70800A246656902E03E004B1C1AD04E
:103040004B005B18DB00EF180A008C46E95E7B88BA
:103050001BB2002BF1DA01235B42DC17BB60FC6082
:10306000824205D0534631801B893B8053461A81EA
:1030700060464B1CE4D15446E5E6A3686345B7D9E6
:10308000C2E76B1C00D0EAE6F8E65B4658461B69CF
:10309000984700281BD153461B8822692381EFF3F0
:1030A000108372B611680029FCD0BFF35F8F5146C0
:1030B00062880A8022696580BFF35F8F00211160FA
:1030C00083F31088B4E6864200D8F8E6B0E65B46A3
:1030D0001A685B680092019307E7B34500D848E798
:1030E0004CE7C046082100203C700540F52D00103B
:1030F0000040054070B52E4C2569002D04D00A21F2
:103100002C4800F0E9FC70BD2B4E0321300000F08C
:10311000D9FAE660FFF72AFE284B03229C46D0230B
:1031200022701B061B6801216370254B6044A3605D
:103130000F23800020610220638063694942A180DF
:1031400019800231198647311D83585218315A525D
:1031500075325C3999521832013199521832013165
:103160009952183201319952083518329D52023164
:10317000183299521832013199521832013199524C
:1031800018320131995218320131995218320131F5
:1031900099520C4B0C49DC600130356200F008FBA1
:1031A0000121032000F0CCFA084B1D60A7E7C046C0
:1031B000C80F0020242100200040054040000034BA
:1031C000FFFF100008210020F52D00103860054099
:1031D00000487047C80F0020F8B51F0008AB1B78E7
:1031E00004001600002B08D100F07EFA32003B00EC
:1031F000121A8B41002B00DA52E02269EFF31080A3
:1032000072B61368002BFCD0BFF35F8F0223E15E20
:1032100063694A005218D2009B182269002936DBE4
:103220001D886580BFF35F8F0025156080F31088CF
:10323000069A9E60DF601A61079A5A615A880132C5
:103240005204520C101C002A1FD082B2588008046D
:1032500010432669EFF3108772B63268002AFCD05B
:10326000BFF35F8FA2881A80A1802369BFF35F8FAD
:1032700000221A6087F310880A4923788C460132AD
:103280009A40E36863441A60F8BD0120DDE7BFF3AC
:103290005F8F0023136080F3108801204042F3E722
:1032A0000020F1E73C20000070B501000469EFF355
:1032B000108C72B620680028FCD0BFF35F8F02200C
:1032C0000D5E4C6968004019C00024180869002D83
:1032D00036DB26884E80BFF35F8F002606608CF3B6
:1032E0001088E36063880498013320615B040598CB
:1032F0005B0CA26060611A1C002B1FD093B22804E3
:10330000628018430A69EFF3108C72B61368002BC1
:10331000FCD0BFF35F8F8B8823808D800B69BFF358
:103320005F8F00221A608CF310880B7801329A406C
:10333000CB6808498C4663441A6070BD0122DDE702
:10334000BFF35F8F002303608CF31088012040429D
:10335000F3E7C0463C20000010B543890A149342AD
:103360001ADD53009B184269DB00D3180469EFF3A0
:10337000108C72B62268002AFCD0BFF35F8F5A8887
:10338000090494B2090C8A4208D00369BFF35F8F25
:1033900000221A608CF31088002010BD80221202D7
:1033A00014435C80012302698371BFF35F8F0021A6
:1033B00011608CF31088044902788C469340C268EF
:1033C000012062441360E8E73C2000004078704729
:1033D000F0B5C64600B582B004000D0000F084F9D7
:1033E00024184D41002D02DA01242F4D6442062697
:1033F0007642F71736196F41AF4214D811D000F05A
:1034000073F932003B00121A8B41002B15DC002BA4
:1034100046D02000290000F071F902B080BCB84607
:10342000F0BDA642EBD90026002700F05DF932007E
:103430003B00121A8B41002BE9DD00F055F93200F8
:103440003B00121A8B41002B0ADB00230193174B20
:103450003200009316483B00FFF726FF0130D8D01A
:1034600000233900B0469C46124A1348536A9942D9
:1034700004D8966A4645CCD29942CAD10668EFF381
:10348000108772B63368002BFCD0BFF35F8F0368E0
:10349000BFF35F8F66461E6087F3108820BFE5E7A5
:1034A000002AB6D0C9E7C046FFFFFF7FC52D001038
:1034B000C80F00200040054024210020F0B5C6467A
:1034C00000B582B0040000F00FF9FA2206000F00E8
:1034D000200000230021920001F0B2FE8019794102
:1034E00004000D1E02DA01242E4D644206267642A7
:1034F000F71736196F41AF4214D811D000F0F4F825
:1035000032003B00121A8B41002B15DC002B46D0F9
:103510002000290000F0F2F802B080BCB846F0BDEF
:10352000A642EBD90026002700F0DEF832003B006F
:10353000121A8B41002BE9DD00F0D6F832003B0077
:10354000121A8B41002B0ADB00230193164B320029
:10355000009316483B00FFF7A7FE0130D8D00023A8
:103560003900B0469C46124A1248536A994204D820
:10357000966A4645CCD29942CAD10668EFF31087C5
:1035800072B63368002BFCD0BFF35F8F0368BFF3C4
:103590005F8F66461E6087F3108820BFE5E7002A2C
:1035A000B6D0C9E7FFFFFF7FC52D0010C80F002070
:1035B0000040054024210020F0B557464E46DE4627
:1035C0004546E0B506000F0085B0EFF30583994648
:1035D0008B46002B12D0384900204B6ABB4206D3E1
:1035E0008A6ADB1B591E8B41B2424041184305B029
:1035F000F0BCBB46B246A946A046F0BD2F4B9A464A
:10360000DB68984653461B784046039300F064F805
:103610004246039B040004339B009B580D001B1A79
:1036200039003000001BA941894510DC0DD020BFB6
:10363000214A0020536A5B45D9D3926ADB1B591E8D
:103640008B41B24240411843D1E78342EFD900F0A9
:103650004BF832003B00121A8B41002B1ADB00237F
:103660000193174B3200009350463B00FFF71CFEBE
:10367000011E0FDD104B5A6A5A451BD39B6AB34299
:1036800016D35046FFF768FE0B4A0020536A5B458D
:10369000ADD3D2E7084A0020536A5B45A7D3002088
:1036A000926ADB1BB24240415A1E934118439EE787
:1036B0005A45E6D120BFE4E700400540C80F00208E
:1036C000C52D001010B5024A0248FFF7E9FA10BDF7
:1036D00088B100107C1C00200300416A0A00986A2F
:1036E000596A8A42FAD17047034B596A0A00986AAC
:1036F000596A9142FAD1704700400540064A536A20
:103700009942FCD807D1044B02E05A6A914202D197
:103710009A6A9042F9D8704700400540054B064A26
:103720001360064A136053609360D3601361536162
:10373000936170478080808000E400E004E400E052
:103740001F2318401E3B8340002905D0C021044A96
:103750004900535013607047802201498B50FAE7AB
:1037600000E100E001228240034B1B6813405A1E17
:103770009341D8B27047C04600E100E00123834086
:10378000014A13607047C04600E200E0064B10306B
:103790009B688000C358054A00209B1A2F229A423A
:1037A0004041C0B27047C04600ED00E0E00F00208D
:1037B00070B50D00EFF3108672B60F4A1368002B38
:1037C000FCD0BFF35F8F0D4B10309B6884001B59FA
:1037D0000B4A934203D09D4201D000F0F7FB074B08
:1037E0009B681D51BFF35F8FBFF35F8F0022024BB9
:1037F0001A6086F3108870BD240100D000ED00E04F
:10380000CD010010F0B557464E46DE464546E0B5C0
:1038100085B0060000911700EFF3108B72B66A4A6C
:103820001368002BFCD0BFF35F8F0025674B5D57FB
:103830009A46002D00DAA9E06B00654C01935B19F4
:103840009B009846A146C1444B4652469B79103690
:103850001370604BB6009B6899590B1B2F2B33D903
:103860005D4B994200D0ACE0019B42469C465B4BCD
:103870006544AD0063535A4B0232A218043B9B1AB5
:103880001B05584A5B0D651913436B80564B01218C
:10389000AB80FF23AB71009BEF71AB604B460B43DA
:1038A00019004C4B9B689951BFF35F8FBFF35F8F3B
:1038B0000022454B1A608BF3108805B0F0BCBB4664
:1038C000B246A946A046F0BD01200A008243D37942
:1038D0008C46BB4231D84546130044491B1B5B4113
:1038E0005943090D3D4B63533D4B02356519043B6C
:1038F0005B1B1B053B4D5B0D2B43AA464D466B8066
:103900000425AC465546E044131F44441B1B1B05CD
:103910005B0D1D434B46997100999D809960494606
:10392000DF71334B01431360BBE75800C0188000C0
:103930002018C179B9422FD902000623D356002B93
:10394000F3DA02932B4B61460393131D9A4604232B
:103950005B429C46E14450464B461B1A1B055B0DDF
:103960009C46204B9571984663464046034393809E
:10397000019B5A199200039BA418A380029B1C4A26
:10398000A371009B2260E771A3608AE700F01EFB31
:10399000002553465D574FE7908802934005131D5D
:1039A0009A46031561469C464046D444634604301B
:1039B0002018181AE0230005400D1B02184303903D
:1039C000C5E700F003FB4FE7240100D045210020AC
:1039D000E00F002000ED00E0CD01001000A1FFFF8E
:1039E0001010002000E0FFFF01BDFFFFAAAA0000A9
:1039F0000148804701BD000070B501240443EFF386
:103A00000581EFF3108C72B6214A1368002BFCD0AD
:103A1000BFF35F8F1F4B05001F4AED1A6D416A43CC
:103A2000120D1E4D8900AE6852B27658A6421CD0C7
:103A30000621595691421CD012215956914222D04A
:103A40001E215956914220D02A21595603249142D1
:103A500010D0134B19781A708171BFF35F8F002259
:103A60000B4B1A608CF3108870BDAB680D4C5C502A
:103A7000EFE700246100091989005B18FF219971A3
:103A800009499980E5E70124F4E70224F2E7C046FA
:103A9000240100D0E00F0020AAAA000000ED00E001
:103AA00045210020CD01001001BDFFFF10B5084BDE
:103AB000084C82B001000093002205232000FFF78C
:103AC00011F9002801DB1F23181A02B010BDC046EF
:103AD000ACB1001049210020024B9C466144890092
:103AE000016070474000003470B5114C114DAC427C
:103AF0000FD2FF262368002B0CD0FFF737F9010007
:103B00002000FFF7E9FFA680BFF35F8F0834AC42C7
:103B1000F0D370BDFFF72AF901002000FFF7DCFFAA
:103B20002671BFF35F8F0834AC42E3D3F1E7C046A0
:103B3000881000209010002010B50400FFF716F93F
:103B400001002000FFF7C8FFFF232371BFF35F8F41
:103B500010BDC04610B504000120FFF713F9034B58
:103B6000C3189B002360BFF35F8F10BD400000347B
:103B7000034B9C46614489000160BFF35F8F70472F
:103B800040000034F8B5DE464E4657464546E0B59F
:103B90008B4605000A991800160000F01DFB0A9BD1
:103BA0006C001F02324B64199C46A4006444636895
:103BB00081469F4200D967602B1FDBB29846012BDC
:103BC00030D9C02380229B01E31812011A60294BCF
:103BD000AD0059599A4600291BD17301E02622688D
:103BE00053401E40802342465B01E3181E60012AB9
:103BF00030D9802380229B01E31812011A605346BA
:103C00004A4667605A51F0BCBB46B246A946A04638
:103C1000F8BD586900F0E0FA013043001B18033B7F
:103C2000FDD2DAE75B46012BCBD1C02303229B01F7
:103C3000E3181A60023AA3681A42FCD07301E02626
:103C40002268AD0053401E4080230A4A5B01924621
:103C5000E3181E605A462168514003220A401A6048
:103C600001225B469A40A3681A42FCD0C1E7C046D5
:103C700000800040801C0020F0B546464F46D646E6
:103C8000C0B51F00344B44009C462418A400644473
:103C9000636888461600FF2B02D880235B006360B0
:103CA000031FDBB29A46012B30D9C02380229B012F
:103CB000E31812011A60294B8500595999460029C9
:103CC0001BD17301E026226853401E4080235246D8
:103CD0005B01E3181E60012A30D9802380229B01FA
:103CE000E31812011A6080235B0063604B465F514A
:103CF000E0BCBA46B146A846F0BD586900F06CFA7F
:103D0000013043001B18033BFDD2DAE74346012B89
:103D1000CBD1C02303229B01E3181A60023AA368A7
:103D20001A42FCD07301E0262268850053401E40F1
:103D300080230A4A5B019146E3181E6042462168CF
:103D4000514003220A401A60012342469340A26870
:103D50001342FCD0C1E7C04600800040801C002018
:103D6000014B8000C0587047801C0020094A830026
:103D70009A1810B514684022544080322240064CF4
:103D8000C000A44663441A60044B9C4660444160F2
:103D900010BDC04604C0014004D0014000400140B5
:103DA000074B8000C3181B68C90092000A435A40A1
:103DB0000C231340034A9446604403607047C04696
:103DC00004C0014004D00140F8B5040021481E00A1
:103DD00017000D0000F000FA0100380000F0FCF9B7
:103DE000069B36041B031E432368002B20DB1A4B63
:103DF0001A49E3185A1E93418022920194465B426D
:103E00001B0B174A1B0363441360164A13601F0001
:103E10000A689743FBD1144B2560E2182123A06068
:103E200013602368002BFCDA0823E6601360F8BDFA
:103E30003F2322681340AB42D9D1A3681B051B0D59
:103E40008342D4D1EE22E368D2021340B342CED1F2
:103E5000EDE7C046001BB7000040FDBF08C00040B2
:103E600000E0004000F000400430000010B5802465
:103E70001C4BE4051C6000281AD001231A4C18437F
:103E80001A4BDC611A4C44401C62596298628021D2
:103E9000144BC9051960174817490860E021C90487
:103EA0001960002A07D18022144B12061A6010BD37
:103EB0000E4BD861EBE753019B1A9B009A188023A5
:103EC00012015B049A4209D213000D490B60074BA3
:103ED0005A608022094BD2051A60E8E7094B1A00A4
:103EE000F3E7C04600B00540D3C007B000800540EE
:103EF0002D3FF84FFCFF01000820014000A00540C5
:103F0000E0200020FFFFFF008023024A9B000B43BC
:103F1000D362704700800540002310B50100988AE5
:103F20001B8B984710BDC046162310B5010018889A
:103F300002331B88984710BDF8B54746CE4680B57A
:103F40000F1E18D0142399460433040000250126BF
:103F500098464B461888434621681B88984701C4F9
:103F6000431E984101350640AF42F2D13000C0BC3B
:103F7000B946B046F8BD0126F8E7C046002370B543
:103F800004000D00988A05491B8B98470300002008
:103F9000002C01DB0130A040290098475542000069
:103FA000AA23064A1B0113608D235B00D3600449DA
:103FB000044B19605368002BFCDA70470040024044
:103FC00000B0FA00006002407047C04610B50148DA
:103FD000FEF74EFEC8B1001070B5074D074EB54252
:103FE00009D20024013E761BB60808CD984723006D
:103FF0000134B342F9D170BD409E00107C9E001088
:10400000054B064A06491A60064A074B1A6010001B
:104010000B689843FBD1704700E00040BFCDFBFE2A
:1040200008C00040FE7F3C0000F00040044BDB6C09
:10403000002B03D18022034BD2021A607047C04686
:10404000000011504C201150044A054B1A60054ADB
:104050001368DB018033FBD17047C046FFFFFF01CF
:1040600000F0004008C000404022034B9A675A67A6
:104070001A67DA667047C04600F0014010B5FEF7D7
:1040800093FE10BD70B5044D044CA968C0222000F9
:1040900001F0CEFBAC6070BD00ED00E00000002040
:1040A000002310B5294C82B0A367FFF779FF0122E6
:1040B000274B1A60636C012BFCD10322254B1A603D
:1040C000224A936B012BFCD1013300930121224A38
:1040D00022480433FFF778FE052301210093204A8C
:1040E0002048FFF771FE0022022104201E4BFFF73B
:1040F000C3FD0022012105201C4BFFF7BDFD00225E
:10410000002107201A4BFFF7B7FD002200210820ED
:10411000174BFFF7B1FD8023DB0000930022002145
:104120000920134BFFF72EFD0022104B0021062023
:10413000FFF7A2FD0420FFF713FE0E4900F04CF834
:1041400001000020FFF7E0FE02B010BD008000403B
:104150003CB0004030B00040002F68590080024061
:10416000008C864700C00240001BB700405973070F
:10417000006CDC0240420F0001480421014B18474B
:1041800030100020393F0010124A936F9B0815D25F
:104190009066D166002905D0FFE7FFE7FFE7516F82
:1041A000106F704704B580210906C21751400028DE
:1041B00000D0C84305F004FE002104BDF0B5146E24
:1041C000556E576F166FFFF7E3FF14665566576716
:1041D0001667F0BD000000D0114A936F9B0813D200
:1041E00010665166002905D0FFE7FFE7FFE7516F32
:1041F000106F704704B5002801D00020C04305F0BF
:10420000DFFD002104BDC046F0B5146E556E576F3A
:10421000166FFFF7E5FF1466556657671667F0BD22
:10422000000000D094464A4A926F9208624601D23A
:1042300028E0C046F0B5464E346E756E776F366F27
:1042400000F020F89446424A146655665767166790
:104250006246F0BD94463E4A926F9208624601D291
:1042600054E0C046F0B53A4E346E756E776F366FD7
:1042700000F04CF89446364A146655665767166740
:104280006246F0BD002B24DB11D000293EDA00B5D8
:10429000C943404200D1013100F038F8C9434042DF
:1042A00000D10131DB43524200D1013300BD002A6D
:1042B000EBD1002801D1002905D00020C90FC90782
:1042C00001D1C043410800B505F06AFD002200237A
:1042D00000BD00B500290ADBDB43524200D10133A7
:1042E00000F014F8C943404200D1013100BDC94378
:1042F000404200D10131DB43524200D1013300F092
:1043000005F8DB43524200D1013300BD002923D11F
:10431000002B18D1002A0CD0BC460D4F38667A66A7
:1043200000210023FFE7FFE7FFE77A6F386F67465A
:104330007047002801D00748010000B505F030FDA6
:104340000022002300BD02000B0000200021704766
:10435000000000D0FFFFFFFF002B00D0BFE0130CD8
:1043600028D1002AE7D080B4114F39667A66FFE77A
:10437000FFE730B4040C7B6F396F1B0423433B66AB
:104380007A66FFE7FFE7FFE7C04684B27B6F3D6FC9
:104390001B0423433B667A66FFE7FFE7C046002322
:1043A0002C042D0C7A6F386F00196941B0BC70472E
:1043B000000000D0F0B594460025140E01D1120281
:1043C0000835140F01D112010435940F01D1920068
:1043D0000235D40F01D152000135D40B0134254FE1
:1043E0007C66254C3C660E0C93B2FFE7FFE7FFE7C7
:1043F0003C6F6643360C7703BE467343DF0B5B04AA
:10440000C01AB941130C7343DB18C91ACE086643AE
:10441000360CB64493B273431F0F1B01C01AB94147
:10442000130C73431F0B1B05C01AB941860D8F0275
:104430003E436643360C092D24DB520A7243801A30
:104440007703460A6643360C16235B1BDE40DF40CB
:10445000BF1964466643821B70460435063301006B
:10446000D940A840C01900D30131A24206D200238E
:10447000F0BD0000000000D0FFFFFFFF121B013065
:10448000F3D3F1E709277F1BFE406446A2B27243D3
:10449000801A00D20139220C7243130C1204821AC2
:1044A00099410B007046043513370100F940A840CC
:1044B000801900D30131002B02D1A2420AD2F0BDF3
:1044C000013000D30131121BFAD2013BF8D1A242D4
:1044D00000D2F0BD013000D30131121BF7E7F0B577
:1044E0001C0C00D080E00CB400251C0A04D11B0277
:1044F000160E3343120208351C0B04D11B01160F94
:104500003343120104359C0B04D19B00960F3343B7
:1045100092000235DC0B02D192185B4101351C0080
:10452000971864410134464F7C66464C3C660E0C3D
:10453000FFE7FFE7FFE7C0463C6F6643360C7703B3
:10454000BE4697B27743C01B00D20139C01B00D2D0
:1045500001399FB27743C91BC91B170C77437E04EF
:10456000FF0B801BB941CE086643360C0C2D33DBA4
:10457000B644120B1F053A431B0B97B27743C01B7F
:1045800000D201399FB27743C91B170C77433E0411
:104590003F0C801BB941860D8F023E43664329279D
:1045A0007F1BFE400C3D7746AF40BF1930BCA2B226
:1045B000ABB272437343801A9941220C7243130CBD
:1045C0001204801A994102000B000137001BA94117
:1045D000F9D2781E0021F0BD0C277F1BFE407746E4
:1045E0007F0BAF40FF19E0E700245D1C07D0144F9C
:1045F0007D663966FFE7FFE7FFE7FFE73C6F95B2AF
:104600009EB265436643401BB141150C1E0C6543C9
:10461000664336042F0C3E432D04401BB1419942A2
:1046200004D202000B0020000021F0BD01D1904215
:10463000F7D3801A994101349942F2D3F6E700008A
:10464000000000D0FFFFFFFF48404140484018B441
:104650001B4B5B68FC46019308BD04DF3B4900101F
:1046600018B4174B1B68FC46019308BD00DF454991
:1046700000109446134A926F920809D2624618B409
:104680000F4BDB68FC46019308BD0CDFFD4B0010AF
:104690000C4AF0B5146E556E576F166F6246FFF7F1
:1046A000EEFF084A1466556657671667F0BD18B4E2
:1046B000034B9B68FC46019308BD08DFA14A00102C
:1046C00018120020000000D0FFB55040424050407A
:1046D00059404B40594000E0FFB5154F4C00640D68
:1046E00003D0BC4204D10C0314D80020090D0905E5
:1046F0005C00640D03D0BC4204D11C030AD8002224
:104700001B0D1B0501264B4009D44B4003D58B42A2
:1047100000D18242FFBD9942FCD19042FFBD0B43C4
:10472000DB1803431343F5D0C9434918FFBD00000C
:10473000FF07000000B5FFF7CFFF804100BDC04676
:1047400000B5FFF7C9FF01D9002000BD012000BD61
:1047500000B5FFF7B9FF01D9002000BD012000BD61
:1047600000B5FFF7B1FF804100BD012040054A00C0
:10477000121804D85A00121801D8002070470120DE
:10478000704700000021002805D17047C11748403C
:10479000401AFAD0C90713B5064B1B6898470CBCE2
:1047A000441CA2401005120B0349091B09051943BB
:1047B000114310BD202100201F04000010B54C0043
:1047C000620D8023D218DB00D21A5B057E2A10DD31
:1047D0009E3A13DACC170903490819435242D140D3
:1047E000640001341532202A05DAD04008436043C2
:1047F00010BD002010BD0846604310BDC80FC01892
:10480000013810BD18B4044B5B6AFC46019308BD27
:1048100024DFAD4D001000001812002018B4044B26
:10482000DB6FFC46019308BD7CDF2D4E00100000BD
:104830001812002018B4044BDB6CFC46019308BD31
:104840004CDFD94F001000001812002018B4044BA0
:104850001B6DFC46019308BD50DF75500010000031
:1048600018120020132370B51D78012D19D014DD06
:104870001F48FFF759FB06001E48FFF755FB1E4C6B
:1048800080223100200000F0D3FF022D2DD01B48E4
:10489000FFF742FB1A4B186070BD1A4B164CA3640D
:1048A000F5E7184B144C23606360A360E360236159
:1048B0006361A361E36123626362A362E3622363D2
:1048C0006363A363E36323646364A364E3642365B2
:1048D0006365A365E36523666366A366E366236792
:1048E0006367A367E367A364D1E7064BA364CEE7DE
:1048F0005344000053460000181200204C330000BF
:10490000202100200949001007B5604601880A0AE5
:104910000230DF2AFAD1C9B2820804D30288408863
:104920000004104300E00068014A5050039007BDA6
:10493000181200200FB403BC0CBCF0B50124E4072E
:10494000634000E0F0B50C0DCF0F661E3605891BE5
:10495000640503D3C943404200D30131640D03D041
:10496000661CF60A07D0E41B00207F00791C89072B
:104970008912803C24031D0DDF0F6E1E36059B1B24
:104980006D0503D3DB43524200D301336D0D03D0D9
:104990006E1CF60A07D0ED1B00227F007B1C9B07D4
:1049A0009B12803D2D032F1B661B58D4A446202E3E
:1049B00046DA20371400BC401D00BD40F2403341B0
:1049C0002A4380185941CB0F05D0C943C043002268
:1049D00064425041514162464D0D28D10D0D07D121
:1049E00000281FD0241940414941013A0D0DF9D04A
:1049F000640006D3013000D30131002C01D14008FE
:104A00004000013A0BD4941CE40A04D1120511446D
:104A1000DB071944F0BDD907204B194300E0D90743
:104A20000020F0BD0029DDD1002CDBD1F0BD01322A
:104A3000C6074008CD0728434908002EE1D0D9E732
:104A40003C2E29DA203E40371400BC4000D001241F
:104A5000F24014431A00BB401C43D317ACE7AC46EA
:104A6000202F08DA20360400B4400D00B540F8408D
:104A700039412843A5E73C2F0CDA203F403604009B
:104A8000B44000D00124F84004430800B1400C4376
:104A9000C117EAE710001900002494E70000F07F36
:104AA000F0B50C0D661E3605891BE60A6405640D1B
:104AB00002D0651CED0A04D0002001210905803CCC
:104AC0002403A4461C0D671E3F05DB1BE70A640593
:104AD000640D02D0651CED0A04D0002201231B05E1
:104AE000803C24037740644497B484B296B2744304
:104AF000070C7E43150C6F4380B26843361802D30F
:104B0000012000043F183004350C00197D41844613
:104B100088B29AB250430C0C62431F0C7C438EB295
:104B20007E43921902D301263604A4191604170CE9
:104B30003618674101BC81B29AB25143040C6243FA
:104B40001B0C5C4380B25843121802D301200004AE
:104B500024181004130C401863412D185E410020E6
:104B6000474106BC88B293B258430C0C6343120C05
:104B7000544389B251435B1802D3012109046418DC
:104B800019041A0C091862416D185641002047415A
:104B900018BCF902720D1143F0026A0D1043ED02C8
:104BA0000A0D03D16D1940414941013B124E9B1B37
:104BB0007600B3420ED26D0007D30130002671415A
:104BC0006646354301D1400840001B05C918E4077B
:104BD0002144F0BD0BDA013306D1013004D101319B
:104BE0004F0D01D04908F2E7E1070020F0BD013682
:104BF00031050020EBE70000FF030000F0B51C0DBD
:104C0000671E3F05DB1BE70A6405640D02D0661CC6
:104C1000F60A04D0002201231B05803C2403D02582
:104C20002D060026F6432E661E096E66CE0FF61977
:104C3000B44649004F0D02D07E1CF60A03D0002076
:104C40000021403F3F033E1BB600B444013F7F05B7
:104C5000C91B49082E6F013676089C02950D254325
:104C60007543ED137543AD1301356D10F603761BD7
:104C70000CB4CC02450D2C43A2B2B3B25A43270C5C
:104C80007B43350C6F43A4B26C431B1902D3012440
:104C900024043F191C041D0CA4187D4124196D41E6
:104CA000009A91B2ACB26143170C7C432B0C5F436A
:104CB00092B25A43A41802D301221204BF1822044C
:104CC000230C52187B41019C6C431B19520ED901D5
:104CD0000A434401A01A81B2B2B2514303145A43A9
:104CE000360C734387B27743D617D21900277E411B
:104CF00036049B191704160C7F185E417316ED18C5
:104D0000F301002680337541A90F06D16400690ABA
:104D1000E8055B0A184309D22FE00422944480334B
:104D20007541A90AA8059B0A184326D34041494169
:104D30002404009A019B0D005543641B4343E41A6D
:104D400095B286B27543170C7E43030C5F4392B253
:104D50005A43B61802D301221204BF183204330C8E
:104D600052197B4152429C41002C02D40022013056
:104D700051414008CA071043490802B06246D707AC
:104D80009210084BD218084B9A4203D21205891888
:104D9000C919F0BD0020002A01DC3900F0BD013343
:104DA0001905F5E7FD030000FE070000002200B52D
:104DB000203200F004F8080000BD000000220B15AE
:104DC0000AD410B5944600F0A7F81414013400DAA0
:104DD0000021CB17144C204700200021704762446B
:104DE000343A0CD40C2A07DA040091409040524225
:104DF0002032D440214310BDD843D94310BD2032C6
:104E000007D40C469440524220321141D0402043F6
:104E100010BD0800C917203203D45242203210417D
:104E200010BD1800190010BDDF4D00104A00520DD2
:104E3000144BD21A13DDFF2A1EDAD205CB0FDB0783
:104E40001A43C300400F0903490A084310435B009B
:104E500001D301D0013070474308FBD2704702D024
:104E6000C80FC00770470A0312130132F8D1420F6E
:104E7000072AF5D1012200E0FF22C80F00028018A6
:104E8000C00570478003000000210A00002104E0F3
:104E900000210A00C11704E00022002306E0C046FA
:104EA0000022CB1758405940C01A994130B5184CD0
:104EB000A21A002903D1010010D00020203A4C157D
:104EC00012D104D2013A001849414C0DFAD3114CC9
:104ED000A24204D212058918DB07C91830BDD2439B
:104EE000520D00200021F5E703D4013A0018494192
:104EF000FBD50B324405C00A4D052843C90A64009E
:104F000003D0002460416141E1E7E0D34408F8E7C1
:104F100032040000FE0700000A0DCC0F531E1B05D3
:104F2000C91A520503D3C943404200D30131520D7F
:104F300003D0531CDB0A07D0121B00206400611C45
:104F400089078912803A1203014BD21A7047000078
:104F5000FF030000023225D40C2A1CDA1125AD1AF9
:104F60000B002B41083207350600EE40904091407F
:104F70003143F0CC63431A1500235A41554356433D
:104F80005743BF02F412760576196741ED177F1972
:104F9000801BB94170470C220020C917490001311C
:104FA0000905DBE70902030E1943000253422032D0
:104FB00008D40C0019419440D840204300225041AD
:104FC000514170470800C917203B2032F1D500201D
:104FD0000021002270470000F0B5FFF79DFF54A4A8
:104FE000FFF7B8FF002904DA204C214D0019694170
:104FF000013A04B4012752A6002201239B0730CEB8
:10500000B446001BA9410BD47E4220361D003D4111
:105010001C00B4401600FE40344362416B4101E085
:105020000019694166460137212FE8D185B29EB249
:10503000754307147E43190C4F4384B24C43F11758
:1050400036190024614109047F183404310C6419B5
:105050007941A40F8800204389178018594104BC66
:1050600052423E32FFF71DFFF0BD00006BDE73F4CD
:10507000FD855C2CF0B54F0050D27F154ED0013726
:105080004FD0FFF749FF04B44902C20D114340025B
:1050900001272BA6B446002200237E4220360D00B5
:1050A0003D410C00B4400600FE40344344414D41B4
:1050B000AE0F05D120002900664630CE121BAB4151
:1050C0000824A4440137212FE7D189008910121840
:1050D0004B4180BC17A413CC0137784379437C4300
:1050E0004F05C912CD17C0196941A702A415CD17E4
:1050F000C9196C41DD17801859416C413E22CD170A
:10510000AC4208D000090E07304309092607314395
:105110002411043AF3E7FFF7C4FEF0BD0249002072
:10512000F0BD02490020F0BD0000F0FF0000F07F5C
:10513000AAB800006BDE1300A3EF0F0021170B00CD
:10514000F34B98BFEC23F319D6104DCDE3FB470E7C
:105150007AB9BC8ADBC18907CC542C021846E1031A
:10516000053083E7B029F8011E1FE0874505FE00E2
:10517000249E41ACA9807F008117624515E03F0065
:10518000E610ABA902F81F008858455500FE0F0035
:10519000C4AAA90A80FF070056455501E0FF030095
:1051A000ABA92A00F8FF010045550500FEFF0000ED
:1051B000AAAA0080FF7F0000551500E0FF3F000015
:1051C000AB0200F8FF1F0000550000FEFF0F0000BB
:1051D0000B0080FFFF0700000100E0FFFF0300005D
:1051E0000000F8FFFF0100000000FEFFFF000000CC
:1051F0000080FFFF7F00000000E0FFFF3F00000095
:1052000000F8FFFF1F00000000FEFFFF0F0000007E
:1052100080FFFFFF07000000E0FFFFFF030000002A
:10522000F8FFFFFF01000000FEFFFFFF000000008D
:1052300000000080000000000000004000000000AE
:1052400051434343C9188C46110C83B24B4310B4ED
:10525000040C614392B280B2504362431C041B0CA5
:10526000001910BC59411304120CC018514161447B
:10527000704700004840414048400E4B5B6818476B
:105280000C4B1B6818470C4A936F9B0802D2094BC2
:10529000DB681847F0B5146E556E576F166FFFF741
:1052A000F6FF054A1466556657671667F0BD014B51
:1052B0009B68184718130020000000D007B548402D
:1052C0004140484001E0C04607B54200120E03D0FD
:1052D000FF2A03D1420218D8C00DC0054A00120EA1
:1052E00003D0FF2A03D14A020FD8C90DC9050122F4
:1052F000414005D4414001D5814207BD884207BDE8
:105300000143491801D0C043001807BD00B5FFF79D
:10531000DBFF01D0002000BD012000BD491A00289C
:1053200008D1084670470000C10FC90700D54042A8
:10533000002817D0F44603B40B4B1B68984706BCF3
:1053400081409E384042803107D20B0607D0490089
:10535000490AC0051043084360470130F8E7490A8D
:105360008902F5E7704700002021002041000A0E65
:1053700080231B067E2A0BDD9E3A0BDAC117400202
:10538000400818435242D040490001314843704719
:1053900000207047C00FC01801387047C0420DD3BD
:1053A00000B540004008002100F012F8002801D4A8
:1053B000404200BD8020000600BD0000034BDB69B9
:1053C000FC4618471CDFCD570010000018130020C2
:1053D000014B5B6A1847000018130020034BDB6F7A
:1053E000FC4618477CDFE55700100000181300202A
:1053F000132310B512481C78FEF796FD0100012C0E
:105400000AD003DD80220F4800F012FA0E48FEF7A2
:1054100083FD0E4B186010BD0A4C5422200000F092
:1054200007FA0B4B6365A365E36523666366A366B2
:10543000E36623676367A367E3672362E361E5E7E6
:1054400053460000181300204C3300002021002098
:10545000A1570010F8B5CE4647460C0080B5051C94
:1054600001294AD0CE0F76187610012E3DD00327A1
:10547000CA1717407F18BF10012F2ED007231340E3
:105480005B18DB109846012B22D00F2313405B18CA
:105490001B119946012B12D00B00203B1F2B05D965
:1054A0000021FFF7D7FF011CFFF701FF011CFFF7E9
:1054B000FEFE4B46DB0702D5291CFFF7F8FE011C58
:1054C000FFF7F5FE4346DB0702D5291CFFF7EFFE89
:1054D000011CFFF7ECFEFF0713D4011CFFF7E7FEEA
:1054E000F60702D5291CFFF7E2FE011CFFF7DFFEDD
:1054F000E40702D5291CFFF7DAFEC0BCB946B04666
:10550000F8BD291CFFF7D3FEE7E7C046F8B5040055
:10551000061C0D1C002817DA4B001B0E7F3B0ED417
:105520001722D31A0BD401210A009A40013A2A42C9
:1055300005D1172B2BD02A00DA40114227D1802326
:105540001B069C466444261C281CFFF70FFFFF2304
:105550002200DB05070001001A401C4222D09A42BB
:1055600020D063021ED1274B984246DBFF2842DC45
:10557000E40D7F3C67433B007F330020002B10DDB0
:10558000FE2B3CDCFE23FF059B05F81809E0802379
:105590001B06E018291CFFF7B9FF80231B069C4659
:1055A0006044F8BD002F10D03B002033402B0FD8B3
:1055B000002F06DAFE20311C8005FFF764FE7942D9
:1055C000061C301CFFF746FFEBE7FE208005E8E7EE
:1055D000301CFFF703FFFFF739F906000F00281C06
:1055E000FFF7FCFE32003B00FFF761F8FFF722F9FE
:1055F000FFF714F9D5E7FF27BAE71F00B8E7FF2048
:10560000C005CEE700FFFFFFF0B5C6460C1CFE212B
:1056100000B58905071CFFF779FE3D1C00282DD138
:10562000FF26F60533002340984626422AD05949E2
:10563000381CFFF76BFE002827D0B04522D080250C
:10564000544AE30DFF35FF2B5CD053498B4254D0B5
:10565000FF200100194018420BD07F3957D417237F
:105660005B1A002B05DD012199400B00013B234211
:105670004DD1211C381CFFF749FF051C281C80BC9C
:10568000B846F0BDFE25AD05F8E73A003E4214D11C
:10569000E30D002C19DB7F3B0DD41722D31A0AD45B
:1056A00001210A009A40013A224204D1172BE5D089
:1056B000DC402142E2D10025E0E7FD0DFF2D3CD189
:1056C000002CF8DBFF25ED05D8E7FF2213407F3BD8
:1056D000F8D4E83AD31AF5D401210A009A40013AE5
:1056E0002242EFD1172B02D0DC402142EAD0FF2525
:1056F000FF0FFF07ED053D43C0E7FF232B407E2B47
:10570000E0D9D8E72B407E2BDCD80025B6E7002A6D
:10571000D8DB381CFFF762FEFFF798F806000F0091
:10572000201CFFF75BFE32003B00FEF7C0FFFFF7D7
:1057300081F8FFF773F8051CA0E71749E30D8D42C8
:1057400000D080E7002C10DB7F3BBBD41722D31A9C
:10575000B8D4163A9A40013A2242B3D1172B02D05C
:10576000DC40E407AED50D4D88E7FF2213407F3BB8
:10577000A1D4E83AD31A9ED4163A9A40013A22426A
:1057800099D1172B02D0DC40E40794D580252D0653
:1057900074E7C046000080BFFF010000000080FFEA
:1057A00007B5604601880A0A0230DF2AFAD1C9B279
:1057B000820804D3028840880004104300E0006897
:1057C000014A5050039007BD181300200021C21554
:1057D0008032803201D0024A10470020704700001A
:1057E000CD2A0000C30FDB0741000A0E07D0FF2AB5
:1057F00008D00909054A891819434007704719005C
:10580000002070470249C918FAE70000000000387C
:105810000000F07F01480421014B18474010002090
:10582000393F0010014B1B68184700004010002052
:10583000014B5B6818470000401000207047C046CD
:10584000F8B55746DE464E464546E0B599460A9BB2
:1058500007009A460D9B884693460B9C9B073BD1BD
:105860000C9B9C423DD21E1B0B9415000C005E4409
:105870002A004B46013521002020B847B542F7D118
:10588000A0460B9C002C20D0454636195346321BAF
:10589000013C185D29004B46B847002CF6D12B007F
:1058A000350098460D9B9B070FD55B46EC1A0C9B69
:1058B000A3420AD9464698462A004B46310020208A
:1058C0000134B84701354445F6D32800F0BCBB4647
:1058D000B246A946A046F8BD16001500002CD3D14B
:1058E000E0E716001500002CCED1EEE7F0B54546F6
:1058F000DE4657464E46E0B585B09C4610AB1B7859
:10590000149F934698460F9C129E139DBB074CD440
:10591000002D42D1B44248D201233B4099460E9B10
:10592000013B9A46302304E0524601341355A64207
:1059300001D9202CF8D14B46002B00D183E00E9BDF
:10594000013B99463023A54205D82EE04A46013452
:105950001355AC4229D0202CF8D1FB060CD57B0581
:1059600054D4A64263D0A54261D0119B102B50D0D5
:10597000022B57D0202C32D1202301930E9B5A4664
:105980000093039763460295FFF75AFF05B0F0BCFA
:10599000BB46B246A946A046F0BD01233B4099460E
:1059A00001233B422AD1B442B9D3FB061CD57B0567
:1059B000DBD4002CD5D1119B102B5BD0119B022B7B
:1059C0006BD0302301240E9A13704346002B10D164
:1059D0007B073ED52B260E9A631C1655CDE7230078
:1059E000013430260E9AD654202CC5D04346002BC5
:1059F000EED02D260E9A631C1655BEE74346002BAB
:105A00002FD0013DB44200D289E798E7119B102BBB
:105A1000B2D1BB0637D5202CAED058230E9A1355E1
:105A20000134A7E7202CA7D02300013407E0631E30
:105A3000012CC0D0119A102A31D0022AD1D162266D
:105A40000E9AD65496E7FB06CED57B0500D488E7A0
:105A50008BE723003E0790D520260E9A013316557A
:105A60008BE70C233B405A1E9341ED1AB44200D2FF
:105A700055E764E7BB060ED478230E9A0224137010
:105A800030235370A1E7202C00D175E778230E9ABC
:105A9000135501346EE75823EFE76033EDE70E9AB4
:105AA000A61E91464E44BA0602D55822327098E797
:105AB0007822327095E7C04610B5002800D110BD9D
:105AC00001F07EFCFBE7C0460B0010B5002802D0B9
:105AD00049681B68984710BDF0B55746DE464E46EC
